:020000040800F2
:10000000080700204D0200089D1E00082518000862
:10001000991E000843040008A52100080000000004
:10002000000000000000000000000000A31E000807
:100030004704000800000000A11E0008A51E0008DB
:1000400067020008670200086702000867020008EC
:1000500067020008670200086702000867020008DC
:1000600067020008670200086702000867020008CC
:1000700067020008670200086702000867020008BC
:1000800067020008670200086702000867020008AC
:10009000670200086702000867020008670200089C
:1000A000670200086702000867020008670200088C
:1000B000670200086702000867020008670200087C
:1000C000670200086702000867020008670200086C
:1000D000670200086702000867020008670200085C
:1000E0004904000867020008670200086702000868
:1000F000670200086702000867020008670200083C
:10010000670200086702000867020008670200082B
:10011000670200086702000867020008670200081B
:10012000670200086702000867020008670200080B
:1001300067020008670200086702000867020008FB
:1001400067020008670200086702000867020008EB
:1001500067020008670200086702000867020008DB
:1001600067020008670200086702000867020008CB
:10017000670200086702000867020008000000002C
:1001800067020008670200086702000867020008AB
:10019000670200086702000867020008670200089B
:1001A00067020008670200086702000800F002F812
:1001B00000F03CF80AA090E8000C82448344AAF1C5
:1001C0000107DA4501D100F031F8AFF2090EBAE8C3
:1001D0000F0013F0010F18BFFB1A43F0010318477B
:1001E0001C2100003C210000103A24BF78C878C1CF
:1001F000FAD8520724BF30C830C144BF04680C602D
:10020000704700000023002400250026103A28BF74
:1002100078C1FBD8520728BF30C148BF0B60704778
:100220001FB502F059F81FBD10B510BD00F0CFF892
:100230001146FFF7F5FF01F0D3FF00F0EDF803B42E
:10024000FFF7F2FF03BC00F0F5F800000948804713
:1002500009480047FEE7FEE7FEE7FEE7FEE7FEE7A8
:10026000FEE7FEE7FEE7FEE704480549054A064BC0
:1002700070470000651F0008AD010008080100205C
:1002800008070020080300200803002053EA020C9E
:1002900000F069802DE9F04B4FF00006002B1FBFE6
:1002A000B3FA83F503FA05F424FA05F65E4012BFAB
:1002B0001643B2FA82F502FA05F4C5F120051EBF15
:1002C00022FA05FC44EA0C04203556EA044C4FEAB5
:1002D000144418BF641C4FF000084FF0000990420E
:1002E00071EB030C39D3002919BFB1FA81F701FA78
:1002F00007F6B0FA80F700FA07F6C7F120071EBF2D
:1003000020FA07FC46EA0C062037B6FBF4FCA7EB04
:100310000507103F07F01F0BCBF120060CFA0BFB73
:100320002CFA06F644BFB3460026202FA4BF5E4633
:100330004FF0000B5BEA060C08BF4FF0010B19EB06
:100340000B09ABFB027C48EB0608C01B06FB02CC8A
:100350000BFB03CC71EB0C01C1E70B460246414697
:100360004846BDE8F08B13B54FF000004FF0000198
:10037000AFF30080BDE81C4070474FF0000200B5AD
:10038000134694469646203922BFA0E80C50A0E8B8
:100390000C50B1F12001BFF4F7AF090728BFA0E866
:1003A0000C5048BF0CC05DF804EB890028BF40F832
:1003B000042B08BF704748BF20F8022B11F0804F74
:1003C00018BF00F8012B704770477047704775469B
:1003D00000F02CF8AE4605006946534620F00700B1
:1003E000854618B020B5FFF73FFFBDE820404FF02D
:1003F00000064FF000074FF000084FF0000B21F00F
:100400000701AC46ACE8C009ACE8C009ACE8C009DB
:10041000ACE8C0098D46704710B50446AFF30080C4
:100420002046BDE81040FFF70ABF000000487047B3
:10043000A800002001491820ABBEFEE726000200FC
:10044000704700BFFEE7704710B54FF4005000F052
:100450001FF810BD72B600BFFEE7000070B504467D
:1004600000F038F906462546681C10B104480078AB
:10047000054400BF00F02EF9801BA842FAD370BDDE
:10048000080000200021B0F5005F00D1491C704732
:1004900010B5044604480068204020B102480460BA
:1004A0002046FFF7EFFF10BD143C0140F8B50246AF
:1004B0000B460025002400200021DFE0012606FA7B
:1004C00001F51E6806EA0504AC4274D11E7906F0F7
:1004D0000306012E04D01E7906F00306022E13D166
:1004E00090684F000326BE40B0434F00DE68BE4018
:1004F00030439060506801268E40B0431E79C6F3A9
:1005000000168E40304350601E7906F00306032E1D
:1005100009D0D0684F000326BE40B0434F009E680C
:10052000BE403043D0601E7906F00306022E13D180
:10053000CF0802F1200656F827004E07F70E0F26C7
:10054000BE40B0434F07FF0E1E69BE403043CF0888
:1005500002F1200646F8270010684F000326BE402F
:10056000B0431E7906F003064F00BE4030431060D2
:100570005E6806F44036002E7FD000BF002600964D
:10058000404E366846F480463E4F3E603E463668F2
:1005900006F48046009600BF00BF3B4E8F0856F819
:1005A00027008E07370F0F26BE40B043374EB242AA
:1005B00002D100262EE060E0354EB24201D1012684
:1005C00028E0344EB24201D1022623E0324EB2423C
:1005D00001D103261EE0314EB24201D1042619E0BA
:1005E0002F4EB24201D1052614E02E4EB24201D167
:1005F00006260FE02C4EB24201D107260AE02B4E10
:10060000B24201D1082605E0294EB24201D10926A5
:1006100000E00A268F073F0FBE4030431A4E8F0876
:1006200046F82700234E3068A0435E6806F4803603
:1006300006B120431F4E3060361D3068A0435E680F
:1006400006F4003606B120431A4E361D3060361DC2
:100650003068A0435E6806F4801606B12043154E4C
:1006600008363060361D3068A0435E6806F4001618
:1006700006B120430F4E0C363060491C1029FFF4A0
:100680001DAFF8BD44380240083801400000024068
:100690000004024000080240000C0240001002402A
:1006A0000014024000180240001C024000200240DA
:1006B00000240240003C0140024613690B400BB18C
:1006C000012000E0002070470AB1816101E00B04C5
:1006D00083617047014800687047000000000020F7
:1006E000024692F83D0020281ED1242082F83D00C9
:1006F0001068006820F00100136818601068406AF4
:1007000020F01000136858621068406A08431368AC
:1007100058621068006840F00100136818602020DB
:1007200082F83D00002070470220FCE710B5024629
:100730000B46002192F83D0020281DD1242082F88C
:100740003D001068006820F0010014682060106807
:10075000406A81B221F00F0141EA030081B21068C2
:1007600041621068006840F0010014682060202099
:1007700082F83D00002010BD0220FCE770B5044661
:100780000CB9012070BD94F83D0028B9002084F810
:100790003C00204600F006FB242084F83D00206841
:1007A000006820F00100216808602068006840F4BB
:1007B0000040216808602068006820F4004021683B
:1007C000086000F0D1FC05465C496068884206D8A4
:1007D0005B48854201D2012007E0002005E059482E
:1007E000854201D2012000E00020012800D1C9E7A4
:1007F0005548B5FBF0F62068406820F03F003043D4
:10080000216848604D496068884201D8701C07E043
:100810004FF4967070434FF47A71B0FBF1F0401CC6
:100820002168096A21F03F010843216808624349B1
:100830006068884214D8681E61684900B0FBF1F016
:10084000401CC0F30B00042801D204203DE0681EC8
:1008500061684900B0FBF1F0401CC0F30B0034E0CC
:10086000A06838B9681E616801EB4101B0FBF1F086
:10087000401C0AE0681E616801EBC10202EB011135
:10088000B0FBF1F0401C40F48040C0F30B0008B90D
:1008900001201AE0A06848B9681E616801EB4101B7
:1008A000B0FBF1F0401CC0F30B000CE0681E616867
:1008B00001EBC10202EB0111B0FBF1F0401CC0F3EF
:1008C0000B0040F4804040F400402168C9694CF6B8
:1008D000FF72914308432168C861D4E907010843C6
:1008E0002168096821F0C001084321680860D4E943
:1008F000031008432168896848F2FF329143084396
:1009000021688860D4E9050108432168C96821F09D
:10091000FF0108432168C8602068006840F00100BA
:100920002168086000202064202084F83D00002019
:10093000206384F83E0000BF24E70000A086010089
:1009400080841E0000093D0040420F002DE9FC5F3D
:1009500004460F4690469946DDE90CAB0E9EFFF724
:10096000B9FE054694F83D00202870D119230122D4
:10097000B0492046009501F0C5F810B10220BDE84D
:10098000FC9F00BF94F83C00012801D10220F6E74B
:10099000012084F83C0000BF2068006800F00100DE
:1009A00028B92068006840F00100216808602068CC
:1009B000006820F4006021680860222084F83D006F
:1009C000402084F83E0000202064C4F824A0A4F84D
:1009D0002AB0608D20859848E0624B4642463946F1
:1009E0002046CDE9006500F03FFF08B10120C6E7D1
:1009F000208D88B900BF00200190206840690190D7
:100A000020688069019000BF00BF2068006840F442
:100A100000702168086040E0208D012818D120680E
:100A2000006820F480602168086000BF0020019009
:100A300020684069019020688069019000BF00BF74
:100A40002068006840F400702168086025E0EFE04D
:100A5000208D022816D12068006820F4806021686B
:100A600008602068006840F400602168086000BFEA
:100A70000020019020684069019020688069019001
:100A800000BF0AE000BF002001902068406901908B
:100A900020688069019000BF00BFBAE0208D032864
:100AA0007ED8208D012815D12A463146204601F0F6
:100AB000CEF808B1012062E720680069616A087019
:100AC000606A401C6062208D401E2085608D401E43
:100AD00060859EE0208D02282AD1334600225749A6
:100AE0002046009501F00EF808B1012047E7206884
:100AF000006840F400702168086020680069616A3D
:100B00000870606A401C6062208D401E2085608DE8
:100B1000401E608520680069616A0870606A401C38
:100B20006062208D401E2085608D401E608570E0D3
:100B30003346002241492046009500F0E3FF08B10A
:100B400001201CE72068006820F4806021680860AC
:100B500020680069616A0870606A401C6062208DCC
:100B6000401E2085608D401E60853346002233493B
:100B70002046009500F0C6FF08B10120FFE620687E
:100B8000006840F400702168086020680069616AAC
:100B90000870606A401C6062208D401E208500E065
:100BA00010E0608D401E608520680069616A0870F1
:100BB000606A401C6062208D401E2085608D401E52
:100BC000608526E02A463146204601F040F808B10B
:100BD0000120D4E620680069616A0870606A401CE0
:100BE0006062208D401E2085608D401E60852068DB
:100BF0004069C0F3800060B120680069616A0870D4
:100C0000606A401C6062208D401E2085608D401E01
:100C10006085208D00287FF441AF202084F83D00BE
:100C2000002084F83E0000BF84F83C0000BFA6E628
:100C30000220A4E6020010000000FFFF04000100F3
:100C40002DE9FC5F04460F4690469946DDE90CAB62
:100C50000E9EFFF73FFD054694F83D0020287DD10C
:100C6000192301224D492046009500F04BFF10B199
:100C70000220BDE8FC9F00BF94F83C00012801D190
:100C80000220F6E7012084F83C0000BF20680068DD
:100C900000F0010028B92068006840F001002168D8
:100CA00008602068006820F4006021680860212046
:100CB00084F83D00402084F83E0000202064C4F801
:100CC00024A0A4F82AB0608D20853548E0624B4608
:100CD000424639462046CDE9006500F075FE08B170
:100CE0000120C6E731E02A463146204600F0EFFFFA
:100CF00050B1206C042805D12068006840F40070D1
:100D0000216808600120B4E7606A00782168086102
:100D1000606A401C6062208D401E2085608D401EF0
:100D2000608520684069C0F3800070B1208D60B19B
:100D3000606A007821680861606A401C6062208DEA
:100D4000401E2085608D401E6085208D0028CAD100
:100D50002A463146204600F0A7FE00E01CE050B1D4
:100D6000206C042805D12068006840F400702168D8
:100D7000086001207DE72068006840F40070216869
:100D80000860202084F83D00002084F83E0000BF69
:100D900084F83C0000BF6CE702206AE70200100004
:100DA0000000FFFF10B586B00446142101A8FFF72C
:100DB000E4FA1B492068884230D100BF002000902F
:100DC0001848006840F002001649086008460068AC
:100DD00000F00200009000BF00BF4FF410700190BF
:100DE000122002900020039003200490042005901C
:100DF00001A90D48FFF75AFB00BF002000900948E9
:100E00001030006840F400100649103108600846B0
:100E1000006800F40010009000BF00BF06B010BDD5
:100E2000005400403038024000040240034800688B
:100E30000349097808440149086070470000002010
:100E40000800002010B50D48006840F400700B4900
:100E500008600846006840F4806008600846006842
:100E600040F480700860032000F0A2F80F2000F02A
:100E700007F800F02BF8002010BD0000003C0240F5
:100E800070B504460E4800784FF47A71B1FBF0F06B
:100E90000C490968B1FBF0F5284600F02BFC08B1BD
:100EA000012070BD102C07D200222146501E00F0F8
:100EB00041F80548046001E00120F2E70020F0E776
:100EC000080000200C0000200400002008B500BF2E
:100ED000002000900E48006840F480400C490860F3
:100EE0000846006800F48040009000BF00BF00BFCB
:100EF00000200090081F006840F08050091F086023
:100F00000846006800F08050009000BF00BF08BD98
:100F10004438024001460846002809DB00F01F0360
:100F200001229A4043099B0003F1E023C3F800210A
:100F300000BF70472DE9F05F80460D46164600273A
:100F400001F032F9074639462A46334601F00700D8
:100F5000C0F1070ABAF1040F02D94FF0040A01E008
:100F6000C0F1070AD14600F1040ABAF1070F02D214
:100F70004FF0000A01E0A0F1030AD4464FF0010A45
:100F80000AFA09FAAAF1010A0AEA020A0AFA0CFAAA
:100F90004FF0010B0BFA0CFBABF1010B0BEA030B4F
:100FA0004AEA0B042146404601F006F9BDE8F09FED
:100FB00000BF00F00702064B19684FF6FF03194007
:100FC000044B0B4343EA0221014B196000BF7047F9
:100FD0000CED00E00000FA0570B504460D460CB9B2
:100FE000012070BD5848006800F00F00A84209D2E7
:100FF00055490D700846006800F00F00A84201D066
:101000000120EEE7207800F0020002281DD12078B0
:1010100000F00400042805D14C48006840F4E0507A
:101020004A490860207800F00800082805D14748A0
:10103000006840F46040454908604448006820F07A
:10104000F000A168084341490860207800F00100E1
:10105000A8B36068012807D13C4808380068C0F38D
:101060004040B8B90120BCE76068022802D060683F
:10107000032807D1354808380068C0F3406048B9F4
:101080000120AEE7314808380068C0F3400008B9D5
:101090000120A6E72D48006820F00300616808439E
:1010A0002A490860FFF716FB064609E0FFF712FB26
:1010B000801B41F28831884202D9032091E707E082
:1010C0002248006800F00C006168B0EB810FEDD1A0
:1010D0001D48006800F00F00A84209D91A490D7098
:1010E0000846006800F00F00A84201D0012078E710
:1010F000207800F00400042807D11448006820F488
:10110000E050E168084311490860207800F00800C9
:10111000082808D10D48006820F46040216940EAA1
:10112000C1000A49086000F03FF808490968C1F3A6
:101130000311074A515CC840064908600648006828
:10114000FFF79EFE00204CE7003C024008380240BA
:10115000E22200080C000020040000200148006882
:10116000704700000C00002000B5FFF7F7FF0449AE
:101170000968C1F38221034A515CC84000BD0000E8
:1011800008380240F222000800B5FFF7E7FF0449E3
:101190000968C1F34231034A515CC84000BD0000F8
:1011A00008380240F22200082DE9F047002400250B
:1011B0000026A1462548006800F00C0020B1042854
:1011C00005D008283AD105E0DFF8849039E0DFF84F
:1011D000849036E01D48001F006800F03F041B4863
:1011E000001F006800F4800078B11A481749091FF1
:1011F0000968C1F38811A0FB017001462246002353
:101200003846FFF743F805460EE011480F49091F1D
:101210000968C1F38811A0FB017001462246002332
:101220003846FFF733F805460848001F0068C0F34A
:101230000140401C4600B5FBF6F902E0DFF81090D3
:1012400000BF00BF4846BDE8F087000008380240F4
:101250000024F40040787D01F8B504460CB9012063
:10126000F8BD207800F00100002874D0F94800682B
:1012700000F00C0004280DD0F648006800F00C00C7
:10128000082813D1F348001F006800F48000B0F56F
:10129000800F0BD1EF4808380068C0F340400028A9
:1012A00059D06068002856D10120D9E700BF606896
:1012B000B0F5803F08D1E7480838006840F4803036
:1012C000E449083908601EE06068B0F5A02F0DD130
:1012D000E0480838006840F48020DE49083908609A
:1012E0000846006840F4803008600CE0D9480838AF
:1012F000006820F48030D749083908600846006843
:1013000020F48020086000BF606890B1FFF7E2F928
:10131000054606E0FFF7DEF9401B642801D90320EB
:101320009EE7CC4808380068C0F340400028F1D060
:1013300011E0FFF7CFF9054606E0FFF7CBF9401BB8
:10134000642801D903208BE7C24808380068C0F33D
:1013500040400028F1D1207800F0020002285FD13F
:10136000BC48006800F00C0058B1BA48006800F0B2
:101370000C0008281CD1B748001F006800F480004A
:10138000B0B9B44808380068C0F3400020B1E06844
:10139000012801D0012063E7AE480838006820F03A
:1013A000F800216940EAC100AA490839086037E01D
:1013B000E06800B30120A8490860FFF78BF90546F3
:1013C00006E0FFF787F9401B022801D9032047E711
:1013D000A04808380068C0F340000028F1D09D48BC
:1013E0000838006820F0F800216940EAC1009949F6
:1013F0000839086014E0002097490860FFF76AF98F
:10140000054606E0FFF766F9401B022801D90320D4
:1014100026E7904808380068C0F340000028F1D162
:10142000207800F0080008282CD16069A8B10120BC
:101430008A490860FFF74EF9054606E0FFF74AF9CA
:10144000401B022801D903200AE782486C3000685B
:10145000C0F340000028F1D014E000207F4908606C
:10146000FFF738F9054606E0FFF734F9401B02287C
:1014700001D90320F4E677486C300068C0F34000DF
:101480000028F1D1207800F00400042870D1002752
:1014900070483830006800F0805090B900BF0020DC
:1014A00000906C483830006840F08050694938310D
:1014B00008600846006800F08050009000BF00BF40
:1014C00001276748006800F48070B0B9644800687C
:1014D00040F4807062490860FFF7FCF8054606E0BA
:1014E000FFF7F8F8401B022801D90320B8E65C4852
:1014F000006800F480700028F2D000BFA0680128C6
:1015000008D154486830006840F001005149683102
:1015100008601DE0A06805280DD14E4868300068BD
:1015200040F004004B49683108600846006840F00C
:10153000010008600CE047486830006820F00100B6
:101540004449683108600846006820F004000860DB
:1015500000BFA068A8B1FFF7BDF8054609E0FFF796
:10156000B9F8401B41F28831884202D9032077E65E
:1015700026E0384868300068C0F340000028EED00C
:1015800013E0FFF7A7F8054608E0FFF7A3F8401BB4
:1015900041F28831884201D9032061E62D48683044
:1015A0000068C0F340000028EFD1012F07D129487F
:1015B0003830006820F0805026493831086000BF7C
:1015C000A069002845D02348006800F00C000828D6
:1015D0005DD0A069022845D100201F490866FFF7A9
:1015E00079F8054606E0FFF775F8401B022801D997
:1015F000032035E6174808380068C0F3406000282B
:10160000F1D1D4E907010843616A40EA811101225E
:10161000A06AC2EB500041EA00412C20005D41EA83
:1016200000600C49091F086001200B490866FFF79C
:1016300051F8054606E0FFF74DF8401B022801D996
:1016400003200DE6034808380068C0F34060002816
:10165000F1D049E00838024000004742800E47427E
:1016600000700040002021490866FFF733F8054666
:1016700006E0FFF72FF8401B022801D90320EFE511
:101680001B480068C0F340600028F2D12CE0A0693C
:10169000012800D1E4E51648001D0668A06901286C
:1016A00020D006F48001E06981421BD106F03F01A1
:1016B000206A814216D147F6C0703040616AB0EBB3
:1016C000811F0FD106F440310122A06AC2EB500005
:1016D000B1EB004F06D106F070612C20005DB1EB3C
:1016E000006F01D00120BBE50020B9E500004742B2
:1016F0000038024070B504462546681EB0F1807F70
:1017000001D301200FE0681E4FF0E02148610F2156
:101710004FF0FF3000F050FD00204FF0E0218861D5
:1017200007200861002070BD10B504460CB90120E7
:1017300010BDA06900B100E000BF94F83D0028B9D9
:10174000002084F83C00204600F028F8242084F88B
:101750003D002068C06820F400502168C860204621
:1017600000F00AFC2068006920F4904021680861BC
:101770002068406920F02A00216848612068C0681C
:1017800040F400502168C86000202064202084F8C4
:101790003D0084F83E000020CAE7000010B586B086
:1017A0000446142101A8FEF7E8FD1B492068884281
:1017B0002FD100BF002000901848006840F400209E
:1017C000164908600846006800F40020009000BF39
:1017D00000BF00BF0020009010481038006840F0A3
:1017E00001000E49103908600846006800F0010049
:1017F000009000BF00BF0320019002200290002053
:101800000390032004900820059001A90448FEF7E6
:101810004DFE06B010BD0000004C004040380240B4
:101820000000024000BFFEE7014608684069C0F3BF
:101830008020B0B16FF480600A68506100200863B6
:10184000202081F83D00002081F83E00086C40F027
:101850000400086400BF002081F83C0000BF0120A4
:1018600070470020FCE700002DE9F84304460F46CE
:1018700015469946DDE908862068006840F48060D6
:10188000216808602068006840F480702168086062
:10189000434600224FF001112046009600F032F935
:1018A00060B12068006800F48070B0F5807F02D1DC
:1018B0004FF4007020640320BDE8F88307F0FE00B9
:1018C00021680861334642463E49204600F05DF9F2
:1018D00008B10120F0E700BF0020009020684069B7
:1018E000009020688069009000BF00BF32464146EA
:1018F000204600F0ECF950B1206C042805D1206896
:10190000006840F40070216808600120D4E7B9F154
:10191000010F03D1E8B22168086117E0C5F3072081
:101920002168086132464146204600F0D0F950B1A6
:10193000206C042805D12068006840F400702168FC
:1019400008600120B8E7E8B22168086132464146E4
:10195000204600F0BCF950B1206C042805D1206865
:10196000006840F40070216808600120A4E7206846
:10197000006840F4807021680860434600224FF000
:1019800001112046009600F0BDF858B120680068AB
:1019900000F48070B0F5807F02D14FF400702064B5
:1019A000032089E7F8B240F001002168086133465E
:1019B00042460449204600F0E8F808B101207BE7E0
:1019C000002079E7020001002DE9F843044688462B
:1019D00015469946DDE908672068006840F4807084
:1019E00021680860334600224FF00111204600971D
:1019F00000F088F860B12068006800F48070B0F5ED
:101A0000807F02D14FF4007020640320BDE8F8838A
:101A100008F0FE00216808613B4632462149204615
:101A200000F0B3F808B10120F0E700BF00200090FB
:101A300020684069009020688069009000BF00BF66
:101A40003A463146204600F042F950B1206C042855
:101A500005D12068006840F400702168086001200A
:101A6000D4E7B9F1010F03D1E8B22168086117E0AA
:101A7000C5F30720216808613A463146204600F048
:101A800026F950B1206C042805D12068006840F484
:101A90000070216808600120B8E7E8B22168086199
:101AA0000020B3E70200010070B504460D4616465B
:101AB00020E02046FFF7B8FE08B1012070BD681C89
:101AC000C0B1FEF707FE801BA84200D895B90020E0
:101AD0002063202084F83D00002084F83E00206C24
:101AE00040F02000206400BF002084F83C0000BFCC
:101AF0000120E3E720684069C0F380000028D8D0C7
:101B00000020DBE72DE9F04104460D4617461E464E
:101B1000DDF818801CE0701CD0B1FEF7DBFDA0EBF7
:101B20000800B04200D89EB900202063202084F82D
:101B30003D00002084F83E00206C40F0200020642E
:101B400000BF002084F83C0000BF0120BDE8F08108
:101B5000C5F3074001280AD120684069A9B20840AE
:101B6000A9B2884201D101200BE0002009E02068E1
:101B70008069A9B20840A9B2884201D1012000E0E1
:101B80000020B842C7D00020E0E72DE9F04104462C
:101B90000D4616461F463DE020684069C0F3802090
:101BA000E8B12068006840F40070216808606FF4B4
:101BB00080602168486100202063202084F83D0077
:101BC000002084F83E00206C40F00400206400BF38
:101BD000002084F83C0000BF0120BDE8F081701CAB
:101BE000C0B1FEF777FDC01BB04200D896B9002007
:101BF0002063202084F83D00002084F83E00206C03
:101C000040F02000206400BF002084F83C0000BFAA
:101C10000120E2E7C5F3074001280AD120684069A6
:101C2000A9B20840A9B2884201D101200BE00020EE
:101C300009E020688069A9B20840A9B2884201D1B0
:101C4000012000E000200028A6D00020C5E770B5E4
:101C500004460D46164632E020684069C0F3001085
:101C6000A0B16FF01000216848610020206320209F
:101C700084F83D00002084F83E00206C206400BF02
:101C8000002084F83C0000BF012070BDFEF722FD5B
:101C9000801BA84200D895B900202063202084F83A
:101CA0003D00002084F83E00206C40F020002064BD
:101CB00000BF002084F83C0000BF0120E5E7206859
:101CC0004069C0F380100028C6D00020DDE770B561
:101CD00004460D46164620E02046FFF7A5FD08B154
:101CE000012070BD681CC0B1FEF7F4FC801BA84247
:101CF00000D895B900202063202084F83D00002002
:101D000084F83E00206C40F02000206400BF0020DA
:101D100084F83C0000BF0120E3E720684069C0F37D
:101D2000C0100028D8D00020DBE7000000B587B045
:101D3000142102A8FEF721FB00BF002001902F48CC
:101D4000006840F004002D4908600846006800F073
:101D50000400019000BF00BF00BF002001900846B2
:101D6000006840F0010008600846006800F00100CB
:101D7000019000BF00BF00BF00200190084600682E
:101D800040F0020008600846006800F00200019080
:101D900000BF00BF00224FF481411948FEF794FCB8
:101DA0004FF4005002904FF48810039002200490EA
:101DB00002A91448FEF77AFB4FF4804002900120FC
:101DC0000390022004900020059002A90C48FEF721
:101DD0006DFB80200290012003900020049005906C
:101DE00002A90748FEF762FB002211462820FFF7F0
:101DF000A1F82820FFF78EF807B000BD3038024068
:101E0000000402400008024010B512481249086060
:101E100012484860002110488160C1604FF4804141
:101E20000161002141618161C1610162FEF7A6FC8F
:101E300008B1FEF70FFB00210748FEF751FC08B17F
:101E4000FEF708FB00210448FEF770FC08B1FEF71E
:101E500001FB10BD0054004010000020801A060055
:101E600010B50B480B4908604FF4E1304860002181
:101E700008488160C16001610C21416100218161DC
:101E8000C161FFF751FC08B1FEF7E4FA10BD000094
:101E9000004C00406400002000BFFEE700BFFEE7EA
:101EA0007047704710B5FEF7C1FF10BD00B593B085
:101EB000302107A8FEF761FA142102A8FEF75DFAA7
:101EC00000BF002001902548006840F08050234961
:101ED00008600846006800F08050019000BF00BF15
:101EE00000BF002001901E48006840F440401C499B
:101EF00008600846006800F44040019000BF00BF41
:101F00000220079001200A9010200B9002200D90D3
:101F100000210E9108210F91A02110910221119111
:101F20000421129107A8FFF797F908B1FEF792FA7A
:101F30000F20029002200390002004904FF4A05044
:101F400005904FF480500690052102A8FFF744F851
:101F500008B1FEF77FFA13B000BD00004038024020
:101F6000007000400348006840F4700001490860B8
:101F70007047000088ED00E02DE9F84F0446206826
:101F8000006920F44050E168084321680861216934
:101F9000A068084361690843E1690843009020682C
:101FA000C06849F20C618843009908432168C86001
:101FB0002068406920F44070A169084321684861A5
:101FC00076492068884203D075492068884203D149
:101FD000FFF7DAF8814602E0FFF7C6F88146E069CC
:101FE000B0F5004F6CD102206168A0FB01500346A0
:101FF0001920A9FB007001462A463846FEF746F92B
:102000006421B0FBF1F04FEA001A02206168A0FBE6
:1020100001510B461920A9FB00712A463846FEF7EC
:1020200035F9834602206168A0FB01500346192060
:10203000A9FB00712A463846FEF728F96421B0FB57
:10204000F1F000EBC00101EB0010ABEB800032219E
:1020500001EBC0006421B0FBF1F000F0F8000AEBE6
:10206000400A02206168A0FB015003461920A9FB29
:10207000007001462A463846FEF708F983460220DA
:102080006168A0FB015003461920A9FB00712A4694
:102090003846FEF7FBF86421B0FBF1F000EBC0011D
:1020A00001EB0010ABEB8000322101EBC00064219A
:1020B000B0FBF1F000F007005044216888606AE04E
:1020C00004206168A0FB015003461920A9FB0070A1
:1020D00001462A463846FEF7D9F882460420616850
:1020E000A0FB015003461920A9FB007001462A46B7
:1020F0003846FEF7CBF86421B0FBF1F000EBC001ED
:1021000001EB0010AAEB8000322101EB00106421EA
:10211000B0FBF1F000F0F00A04206168A0FB017050
:1021200003461920A9FB00513A462846FEF7AEF8AF
:102130006421B0FBF1F00AEB001A04206168A0FBF7
:1021400001510B461920A9FB00712A463846FEF7BB
:102150009DF8834604206168A0FB015003461920C6
:10216000A9FB007001462A463846FEF78FF8642125
:10217000B0FBF1F000EBC00101EB0010ABEB800015
:10218000322101EB00106421B0FBF1F000F00F00F0
:10219000504421688860BDE8F88F000000100140BD
:1021A0000014014000BFFEE702480068C0F30220AF
:1021B000704700000CED00E010B5002804DB0A07B2
:1021C000130E054A135406E00A07140E034A00F0E2
:1021D0000F031B1FD45410BD00E400E018ED00E015
:1021E000A8B000BF36A207CA25AB07C3002400BFB2
:1021F00000208DF890008DF84C00A825FEF722FEF7
:10220000FFF754FEFFF792FDFFF72AFEFFF7FCFDF4
:1022100039208DF850004FF47A70012114AA02235E
:10222000CDE9002102900A4629462848FEF708FD1C
:102230000A20FEF713F94FF47A70012103AA022352
:10224000CDE9002102900A4629462048FEF77EFB90
:102250000120FEF703F932E04FF47A70012114AA4D
:102260000223CDE9002102900A46A0211748FEF77B
:10227000E7FC0A20FEF7F2F84FF47A70012103AA76
:102280000223CDE9002102900A46A0210F48FEF763
:102290005DFB0520FEF7E2F84FF400510C48FEF715
:1022A0000BFA044634B900224FF480410948FEF786
:1022B0000BFA04E0012291030648FEF705FACBE78A
:1022C00000112233445566778899000010000020E1
:1022D00000080240000402404FF04070E1EE100A96
:1022E0007047000000000000000001020304060720
:1022F0000809000000000102030400001C2300087C
:102300000000002010000000E80100082C23000855
:1023100010000020F8060000040200080000000081
:0C23200010000000010000000024F40088
:04000005080001AD41
:00000001FF
